{
  "contractName": "ProofOfSnake",
  "abi": [
    {
      "inputs": [],
      "stateMutability": "nonpayable",
      "type": "constructor"
    },
    {
      "anonymous": false,
      "inputs": [
        {
          "indexed": true,
          "internalType": "address",
          "name": "owner",
          "type": "address"
        },
        {
          "indexed": true,
          "internalType": "address",
          "name": "approved",
          "type": "address"
        },
        {
          "indexed": true,
          "internalType": "uint256",
          "name": "tokenId",
          "type": "uint256"
        }
      ],
      "name": "Approval",
      "type": "event"
    },
    {
      "anonymous": false,
      "inputs": [
        {
          "indexed": true,
          "internalType": "address",
          "name": "owner",
          "type": "address"
        },
        {
          "indexed": true,
          "internalType": "address",
          "name": "operator",
          "type": "address"
        },
        {
          "indexed": false,
          "internalType": "bool",
          "name": "approved",
          "type": "bool"
        }
      ],
      "name": "ApprovalForAll",
      "type": "event"
    },
    {
      "anonymous": false,
      "inputs": [
        {
          "indexed": true,
          "internalType": "address",
          "name": "from",
          "type": "address"
        },
        {
          "indexed": true,
          "internalType": "address",
          "name": "to",
          "type": "address"
        },
        {
          "indexed": true,
          "internalType": "uint256",
          "name": "tokenId",
          "type": "uint256"
        }
      ],
      "name": "Transfer",
      "type": "event"
    },
    {
      "inputs": [
        {
          "internalType": "address",
          "name": "to",
          "type": "address"
        },
        {
          "internalType": "uint256",
          "name": "tokenId",
          "type": "uint256"
        }
      ],
      "name": "approve",
      "outputs": [],
      "stateMutability": "nonpayable",
      "type": "function"
    },
    {
      "inputs": [
        {
          "internalType": "address",
          "name": "owner",
          "type": "address"
        }
      ],
      "name": "balanceOf",
      "outputs": [
        {
          "internalType": "uint256",
          "name": "",
          "type": "uint256"
        }
      ],
      "stateMutability": "view",
      "type": "function",
      "constant": true
    },
    {
      "inputs": [],
      "name": "baseURI",
      "outputs": [
        {
          "internalType": "string",
          "name": "",
          "type": "string"
        }
      ],
      "stateMutability": "view",
      "type": "function",
      "constant": true
    },
    {
      "inputs": [],
      "name": "currentLeader",
      "outputs": [
        {
          "internalType": "address",
          "name": "",
          "type": "address"
        }
      ],
      "stateMutability": "view",
      "type": "function",
      "constant": true
    },
    {
      "inputs": [],
      "name": "gameFee",
      "outputs": [
        {
          "internalType": "uint256",
          "name": "",
          "type": "uint256"
        }
      ],
      "stateMutability": "view",
      "type": "function",
      "constant": true
    },
    {
      "inputs": [
        {
          "internalType": "uint256",
          "name": "tokenId",
          "type": "uint256"
        }
      ],
      "name": "getApproved",
      "outputs": [
        {
          "internalType": "address",
          "name": "",
          "type": "address"
        }
      ],
      "stateMutability": "view",
      "type": "function",
      "constant": true
    },
    {
      "inputs": [],
      "name": "highScore",
      "outputs": [
        {
          "internalType": "uint256",
          "name": "",
          "type": "uint256"
        }
      ],
      "stateMutability": "view",
      "type": "function",
      "constant": true
    },
    {
      "inputs": [
        {
          "internalType": "address",
          "name": "owner",
          "type": "address"
        },
        {
          "internalType": "address",
          "name": "operator",
          "type": "address"
        }
      ],
      "name": "isApprovedForAll",
      "outputs": [
        {
          "internalType": "bool",
          "name": "",
          "type": "bool"
        }
      ],
      "stateMutability": "view",
      "type": "function",
      "constant": true
    },
    {
      "inputs": [],
      "name": "name",
      "outputs": [
        {
          "internalType": "string",
          "name": "",
          "type": "string"
        }
      ],
      "stateMutability": "view",
      "type": "function",
      "constant": true
    },
    {
      "inputs": [],
      "name": "owner",
      "outputs": [
        {
          "internalType": "address",
          "name": "",
          "type": "address"
        }
      ],
      "stateMutability": "view",
      "type": "function",
      "constant": true
    },
    {
      "inputs": [
        {
          "internalType": "uint256",
          "name": "tokenId",
          "type": "uint256"
        }
      ],
      "name": "ownerOf",
      "outputs": [
        {
          "internalType": "address",
          "name": "",
          "type": "address"
        }
      ],
      "stateMutability": "view",
      "type": "function",
      "constant": true
    },
    {
      "inputs": [
        {
          "internalType": "address",
          "name": "",
          "type": "address"
        }
      ],
      "name": "potBalance",
      "outputs": [
        {
          "internalType": "uint256",
          "name": "",
          "type": "uint256"
        }
      ],
      "stateMutability": "view",
      "type": "function",
      "constant": true
    },
    {
      "inputs": [
        {
          "internalType": "address",
          "name": "from",
          "type": "address"
        },
        {
          "internalType": "address",
          "name": "to",
          "type": "address"
        },
        {
          "internalType": "uint256",
          "name": "tokenId",
          "type": "uint256"
        }
      ],
      "name": "safeTransferFrom",
      "outputs": [],
      "stateMutability": "nonpayable",
      "type": "function"
    },
    {
      "inputs": [
        {
          "internalType": "address",
          "name": "from",
          "type": "address"
        },
        {
          "internalType": "address",
          "name": "to",
          "type": "address"
        },
        {
          "internalType": "uint256",
          "name": "tokenId",
          "type": "uint256"
        },
        {
          "internalType": "bytes",
          "name": "_data",
          "type": "bytes"
        }
      ],
      "name": "safeTransferFrom",
      "outputs": [],
      "stateMutability": "nonpayable",
      "type": "function"
    },
    {
      "inputs": [
        {
          "internalType": "address",
          "name": "operator",
          "type": "address"
        },
        {
          "internalType": "bool",
          "name": "approved",
          "type": "bool"
        }
      ],
      "name": "setApprovalForAll",
      "outputs": [],
      "stateMutability": "nonpayable",
      "type": "function"
    },
    {
      "inputs": [],
      "name": "stopped",
      "outputs": [
        {
          "internalType": "bool",
          "name": "",
          "type": "bool"
        }
      ],
      "stateMutability": "view",
      "type": "function",
      "constant": true
    },
    {
      "inputs": [
        {
          "internalType": "bytes4",
          "name": "interfaceId",
          "type": "bytes4"
        }
      ],
      "name": "supportsInterface",
      "outputs": [
        {
          "internalType": "bool",
          "name": "",
          "type": "bool"
        }
      ],
      "stateMutability": "view",
      "type": "function",
      "constant": true
    },
    {
      "inputs": [],
      "name": "symbol",
      "outputs": [
        {
          "internalType": "string",
          "name": "",
          "type": "string"
        }
      ],
      "stateMutability": "view",
      "type": "function",
      "constant": true
    },
    {
      "inputs": [
        {
          "internalType": "uint256",
          "name": "index",
          "type": "uint256"
        }
      ],
      "name": "tokenByIndex",
      "outputs": [
        {
          "internalType": "uint256",
          "name": "",
          "type": "uint256"
        }
      ],
      "stateMutability": "view",
      "type": "function",
      "constant": true
    },
    {
      "inputs": [
        {
          "internalType": "address",
          "name": "owner",
          "type": "address"
        },
        {
          "internalType": "uint256",
          "name": "index",
          "type": "uint256"
        }
      ],
      "name": "tokenOfOwnerByIndex",
      "outputs": [
        {
          "internalType": "uint256",
          "name": "",
          "type": "uint256"
        }
      ],
      "stateMutability": "view",
      "type": "function",
      "constant": true
    },
    {
      "inputs": [
        {
          "internalType": "uint256",
          "name": "tokenId",
          "type": "uint256"
        }
      ],
      "name": "tokenURI",
      "outputs": [
        {
          "internalType": "string",
          "name": "",
          "type": "string"
        }
      ],
      "stateMutability": "view",
      "type": "function",
      "constant": true
    },
    {
      "inputs": [],
      "name": "totalSupply",
      "outputs": [
        {
          "internalType": "uint256",
          "name": "",
          "type": "uint256"
        }
      ],
      "stateMutability": "view",
      "type": "function",
      "constant": true
    },
    {
      "inputs": [
        {
          "internalType": "address",
          "name": "from",
          "type": "address"
        },
        {
          "internalType": "address",
          "name": "to",
          "type": "address"
        },
        {
          "internalType": "uint256",
          "name": "tokenId",
          "type": "uint256"
        }
      ],
      "name": "transferFrom",
      "outputs": [],
      "stateMutability": "nonpayable",
      "type": "function"
    },
    {
      "inputs": [],
      "name": "emergency",
      "outputs": [],
      "stateMutability": "nonpayable",
      "type": "function"
    },
    {
      "inputs": [],
      "name": "playGame",
      "outputs": [],
      "stateMutability": "payable",
      "type": "function",
      "payable": true
    },
    {
      "inputs": [
        {
          "internalType": "uint256",
          "name": "_score",
          "type": "uint256"
        }
      ],
      "name": "newLeader",
      "outputs": [],
      "stateMutability": "nonpayable",
      "type": "function"
    },
    {
      "inputs": [],
      "name": "withdrawEarnings",
      "outputs": [],
      "stateMutability": "nonpayable",
      "type": "function"
    }
  ],
  "bytecode": "0x608060405267016345785d8a0000600b556000600f60006101000a81548160ff0219169083151502179055503480156200003857600080fd5b506040518060400160405280601a81526020017f50726f6f662d6f662d536e616b6520486967682053636f7265720000000000008152506040518060400160405280600581526020017f504f534853000000000000000000000000000000000000000000000000000000815250620000bd6301ffc9a760e01b6200023060201b60201c565b8160069080519060200190620000d592919062000339565b508060079080519060200190620000ee92919062000339565b50620001076380ac58cd60e01b6200023060201b60201c565b6200011f635b5e139f60e01b6200023060201b60201c565b6200013763780e9d6360e01b6200023060201b60201c565b505033600d60006101000a81548173ffffffffffffffffffffffffffffffffffffffff021916908373ffffffffffffffffffffffffffffffffffffffff16021790555033600c60006101000a81548173ffffffffffffffffffffffffffffffffffffffff021916908373ffffffffffffffffffffffffffffffffffffffff1602179055506000600e6000600d60009054906101000a900473ffffffffffffffffffffffffffffffffffffffff1673ffffffffffffffffffffffffffffffffffffffff1673ffffffffffffffffffffffffffffffffffffffff168152602001908152602001600020819055506002600a81905550620003df565b63ffffffff60e01b817bffffffffffffffffffffffffffffffffffffffffffffffffffffffff19161415620002cd576040517f08c379a000000000000000000000000000000000000000000000000000000000815260040180806020018281038252601c8152602001807f4552433136353a20696e76616c696420696e746572666163652069640000000081525060200191505060405180910390fd5b6001600080837bffffffffffffffffffffffffffffffffffffffffffffffffffffffff19167bffffffffffffffffffffffffffffffffffffffffffffffffffffffff1916815260200190815260200160002060006101000a81548160ff02191690831515021790555050565b828054600181600116156101000203166002900490600052602060002090601f016020900481019282601f106200037c57805160ff1916838001178555620003ad565b82800160010185558215620003ad579182015b82811115620003ac5782518255916020019190600101906200038f565b5b509050620003bc9190620003c0565b5090565b5b80821115620003db576000816000905550600101620003c1565b5090565b6135e680620003ef6000396000f3fe60806040526004361061019c5760003560e01c806370a08231116100ec578063b73c6ce91161008a578063caa6fea411610064578063caa6fea414610aad578063ddcf1ac714610ac4578063e985e9c514610aff578063ea777eec14610b865761019c565b8063b73c6ce9146108d0578063b88d4fde146108e7578063c87b56dd146109f95761019c565b806395d89b41116100c657806395d89b4114610798578063a22cb46514610828578063ac4bd53a14610885578063af899735146108c65761019c565b806370a08231146106c557806375f12b211461072a5780638da5cb5b146107575761019c565b806323b872dd116101595780634f6ccce7116101335780634f6ccce71461051c578063632711351461056b5780636352211e146105d05780636c0360eb146106355761019c565b806323b872dd146103b75780632f745c591461043257806342842e0e146104a15761019c565b806301ffc9a7146101a157806306fdde0314610211578063081812fc146102a1578063095ea7b31461030657806318160ddd146103615780631fca52781461038c575b600080fd5b3480156101ad57600080fd5b506101f9600480360360208110156101c457600080fd5b8101908080357bffffffffffffffffffffffffffffffffffffffffffffffffffffffff19169060200190929190505050610bb1565b60405180821515815260200191505060405180910390f35b34801561021d57600080fd5b50610226610c18565b6040518080602001828103825283818151815260200191508051906020019080838360005b8381101561026657808201518184015260208101905061024b565b50505050905090810190601f1680156102935780820380516001836020036101000a031916815260200191505b509250505060405180910390f35b3480156102ad57600080fd5b506102da600480360360208110156102c457600080fd5b8101908080359060200190929190505050610cba565b604051808273ffffffffffffffffffffffffffffffffffffffff16815260200191505060405180910390f35b34801561031257600080fd5b5061035f6004803603604081101561032957600080fd5b81019080803573ffffffffffffffffffffffffffffffffffffffff16906020019092919080359060200190929190505050610d55565b005b34801561036d57600080fd5b50610376610e99565b6040518082815260200191505060405180910390f35b34801561039857600080fd5b506103a1610eaa565b6040518082815260200191505060405180910390f35b3480156103c357600080fd5b50610430600480360360608110156103da57600080fd5b81019080803573ffffffffffffffffffffffffffffffffffffffff169060200190929190803573ffffffffffffffffffffffffffffffffffffffff16906020019092919080359060200190929190505050610eb0565b005b34801561043e57600080fd5b5061048b6004803603604081101561045557600080fd5b81019080803573ffffffffffffffffffffffffffffffffffffffff16906020019092919080359060200190929190505050610f26565b6040518082815260200191505060405180910390f35b3480156104ad57600080fd5b5061051a600480360360608110156104c457600080fd5b81019080803573ffffffffffffffffffffffffffffffffffffffff169060200190929190803573ffffffffffffffffffffffffffffffffffffffff16906020019092919080359060200190929190505050610f81565b005b34801561052857600080fd5b506105556004803603602081101561053f57600080fd5b8101908080359060200190929190505050610fa1565b6040518082815260200191505060405180910390f35b34801561057757600080fd5b506105ba6004803603602081101561058e57600080fd5b81019080803573ffffffffffffffffffffffffffffffffffffffff169060200190929190505050610fc4565b6040518082815260200191505060405180910390f35b3480156105dc57600080fd5b50610609600480360360208110156105f357600080fd5b8101908080359060200190929190505050610fdc565b604051808273ffffffffffffffffffffffffffffffffffffffff16815260200191505060405180910390f35b34801561064157600080fd5b5061064a611013565b6040518080602001828103825283818151815260200191508051906020019080838360005b8381101561068a57808201518184015260208101905061066f565b50505050905090810190601f1680156106b75780820380516001836020036101000a031916815260200191505b509250505060405180910390f35b3480156106d157600080fd5b50610714600480360360208110156106e857600080fd5b81019080803573ffffffffffffffffffffffffffffffffffffffff1690602001909291905050506110b5565b6040518082815260200191505060405180910390f35b34801561073657600080fd5b5061073f61118a565b60405180821515815260200191505060405180910390f35b34801561076357600080fd5b5061076c61119d565b604051808273ffffffffffffffffffffffffffffffffffffffff16815260200191505060405180910390f35b3480156107a457600080fd5b506107ad6111c3565b6040518080602001828103825283818151815260200191508051906020019080838360005b838110156107ed5780820151818401526020810190506107d2565b50505050905090810190601f16801561081a5780820380516001836020036101000a031916815260200191505b509250505060405180910390f35b34801561083457600080fd5b506108836004803603604081101561084b57600080fd5b81019080803573ffffffffffffffffffffffffffffffffffffffff169060200190929190803515159060200190929190505050611265565b005b34801561089157600080fd5b5061089a61141b565b604051808273ffffffffffffffffffffffffffffffffffffffff16815260200191505060405180910390f35b6108ce611441565b005b3480156108dc57600080fd5b506108e5611704565b005b3480156108f357600080fd5b506109f76004803603608081101561090a57600080fd5b81019080803573ffffffffffffffffffffffffffffffffffffffff169060200190929190803573ffffffffffffffffffffffffffffffffffffffff169060200190929190803590602001909291908035906020019064010000000081111561097157600080fd5b82018360208201111561098357600080fd5b803590602001918460018302840111640100000000831117156109a557600080fd5b91908080601f016020809104026020016040519081016040528093929190818152602001838380828437600081840152601f19601f8201169050808301925050505050505091929192905050506118dd565b005b348015610a0557600080fd5b50610a3260048036036020811015610a1c57600080fd5b8101908080359060200190929190505050611955565b6040518080602001828103825283818151815260200191508051906020019080838360005b83811015610a72578082015181840152602081019050610a57565b50505050905090810190601f168015610a9f5780820380516001836020036101000a031916815260200191505b509250505060405180910390f35b348015610ab957600080fd5b50610ac2611c3e565b005b348015610ad057600080fd5b50610afd60048036036020811015610ae757600080fd5b8101908080359060200190929190505050611cf2565b005b348015610b0b57600080fd5b50610b6e60048036036040811015610b2257600080fd5b81019080803573ffffffffffffffffffffffffffffffffffffffff169060200190929190803573ffffffffffffffffffffffffffffffffffffffff169060200190929190505050611e37565b60405180821515815260200191505060405180910390f35b348015610b9257600080fd5b50610b9b611ecb565b6040518082815260200191505060405180910390f35b6000806000837bffffffffffffffffffffffffffffffffffffffffffffffffffffffff19167bffffffffffffffffffffffffffffffffffffffffffffffffffffffff1916815260200190815260200160002060009054906101000a900460ff169050919050565b606060068054600181600116156101000203166002900480601f016020809104026020016040519081016040528092919081815260200182805460018160011615610100020316600290048015610cb05780601f10610c8557610100808354040283529160200191610cb0565b820191906000526020600020905b815481529060010190602001808311610c9357829003601f168201915b5050505050905090565b6000610cc582611ed1565b610d1a576040517f08c379a000000000000000000000000000000000000000000000000000000000815260040180806020018281038252602c815260200180613496602c913960400191505060405180910390fd5b6004600083815260200190815260200160002060009054906101000a900473ffffffffffffffffffffffffffffffffffffffff169050919050565b6000610d6082610fdc565b90508073ffffffffffffffffffffffffffffffffffffffff168373ffffffffffffffffffffffffffffffffffffffff161415610de7576040517f08c379a000000000000000000000000000000000000000000000000000000000815260040180806020018281038252602181526020018061355f6021913960400191505060405180910390fd5b8073ffffffffffffffffffffffffffffffffffffffff16610e06611eee565b73ffffffffffffffffffffffffffffffffffffffff161480610e355750610e3481610e2f611eee565b611e37565b5b610e8a576040517f08c379a00000000000000000000000000000000000000000000000000000000081526004018080602001828103825260388152602001806133e96038913960400191505060405180910390fd5b610e948383611ef6565b505050565b6000610ea56002611faf565b905090565b600a5481565b610ec1610ebb611eee565b82611fc4565b610f16576040517f08c379a00000000000000000000000000000000000000000000000000000000081526004018080602001828103825260318152602001806135806031913960400191505060405180910390fd5b610f218383836120b8565b505050565b6000610f7982600160008673ffffffffffffffffffffffffffffffffffffffff1673ffffffffffffffffffffffffffffffffffffffff1681526020019081526020016000206122fb90919063ffffffff16565b905092915050565b610f9c838383604051806020016040528060008152506118dd565b505050565b600080610fb883600261231590919063ffffffff16565b50905080915050919050565b600e6020528060005260406000206000915090505481565b600061100c8260405180606001604052806029815260200161344b6029913960026123419092919063ffffffff16565b9050919050565b606060098054600181600116156101000203166002900480601f0160208091040260200160405190810160405280929190818152602001828054600181600116156101000203166002900480156110ab5780601f10611080576101008083540402835291602001916110ab565b820191906000526020600020905b81548152906001019060200180831161108e57829003601f168201915b5050505050905090565b60008073ffffffffffffffffffffffffffffffffffffffff168273ffffffffffffffffffffffffffffffffffffffff16141561113c576040517f08c379a000000000000000000000000000000000000000000000000000000000815260040180806020018281038252602a815260200180613421602a913960400191505060405180910390fd5b611183600160008473ffffffffffffffffffffffffffffffffffffffff1673ffffffffffffffffffffffffffffffffffffffff168152602001908152602001600020612360565b9050919050565b600f60009054906101000a900460ff1681565b600d60009054906101000a900473ffffffffffffffffffffffffffffffffffffffff1681565b606060078054600181600116156101000203166002900480601f01602080910402602001604051908101604052809291908181526020018280546001816001161561010002031660029004801561125b5780601f106112305761010080835404028352916020019161125b565b820191906000526020600020905b81548152906001019060200180831161123e57829003601f168201915b5050505050905090565b61126d611eee565b73ffffffffffffffffffffffffffffffffffffffff168273ffffffffffffffffffffffffffffffffffffffff16141561130e576040517f08c379a00000000000000000000000000000000000000000000000000000000081526004018080602001828103825260198152602001807f4552433732313a20617070726f766520746f2063616c6c65720000000000000081525060200191505060405180910390fd5b806005600061131b611eee565b73ffffffffffffffffffffffffffffffffffffffff1673ffffffffffffffffffffffffffffffffffffffff16815260200190815260200160002060008473ffffffffffffffffffffffffffffffffffffffff1673ffffffffffffffffffffffffffffffffffffffff16815260200190815260200160002060006101000a81548160ff0219169083151502179055508173ffffffffffffffffffffffffffffffffffffffff166113c8611eee565b73ffffffffffffffffffffffffffffffffffffffff167f17307eab39ab6107e8899845ad3d59bd9653f200f220920489ca2b5937696c318360405180821515815260200191505060405180910390a35050565b600c60009054906101000a900473ffffffffffffffffffffffffffffffffffffffff1681565b600f60009054906101000a900460ff161561145b57600080fd5b600b543410156114d3576040517f08c379a000000000000000000000000000000000000000000000000000000000815260040180806020018281038252601c8152602001807f4d696e696d756d2067616d6520666565206973206e6f74206d65742e0000000081525060200191505060405180910390fd5b6000600e60003373ffffffffffffffffffffffffffffffffffffffff1673ffffffffffffffffffffffffffffffffffffffff1681526020019081526020016000208190555061159f61152f60023461237590919063ffffffff16565b600e6000600d60009054906101000a900473ffffffffffffffffffffffffffffffffffffffff1673ffffffffffffffffffffffffffffffffffffffff1673ffffffffffffffffffffffffffffffffffffffff168152602001908152602001600020546123bf90919063ffffffff16565b600e6000600d60009054906101000a900473ffffffffffffffffffffffffffffffffffffffff1673ffffffffffffffffffffffffffffffffffffffff1673ffffffffffffffffffffffffffffffffffffffff1681526020019081526020016000208190555061169d61162d61161e60023461237590919063ffffffff16565b3461244790919063ffffffff16565b600e6000600c60009054906101000a900473ffffffffffffffffffffffffffffffffffffffff1673ffffffffffffffffffffffffffffffffffffffff1673ffffffffffffffffffffffffffffffffffffffff168152602001908152602001600020546123bf90919063ffffffff16565b600e6000600c60009054906101000a900473ffffffffffffffffffffffffffffffffffffffff1673ffffffffffffffffffffffffffffffffffffffff1673ffffffffffffffffffffffffffffffffffffffff16815260200190815260200160002081905550565b600f60009054906101000a900460ff161561171e57600080fd5b600c60009054906101000a900473ffffffffffffffffffffffffffffffffffffffff1673ffffffffffffffffffffffffffffffffffffffff163373ffffffffffffffffffffffffffffffffffffffff16141580156117bb57506000600e60003373ffffffffffffffffffffffffffffffffffffffff1673ffffffffffffffffffffffffffffffffffffffff16815260200190815260200160002054115b611810576040517f08c379a000000000000000000000000000000000000000000000000000000000815260040180806020018281038252604581526020018061351a6045913960600191505060405180910390fd5b6000600e60003373ffffffffffffffffffffffffffffffffffffffff1673ffffffffffffffffffffffffffffffffffffffff168152602001908152602001600020819055503373ffffffffffffffffffffffffffffffffffffffff166108fc600e60003373ffffffffffffffffffffffffffffffffffffffff1673ffffffffffffffffffffffffffffffffffffffff168152602001908152602001600020549081150290604051600060405180830381858888f193505050501580156118da573d6000803e3d6000fd5b50565b6118ee6118e8611eee565b83611fc4565b611943576040517f08c379a00000000000000000000000000000000000000000000000000000000081526004018080602001828103825260318152602001806135806031913960400191505060405180910390fd5b61194f84848484612491565b50505050565b606061196082611ed1565b6119b5576040517f08c379a000000000000000000000000000000000000000000000000000000000815260040180806020018281038252602f8152602001806134eb602f913960400191505060405180910390fd5b6060600860008481526020019081526020016000208054600181600116156101000203166002900480601f016020809104026020016040519081016040528092919081815260200182805460018160011615610100020316600290048015611a5e5780601f10611a3357610100808354040283529160200191611a5e565b820191906000526020600020905b815481529060010190602001808311611a4157829003601f168201915b50505050509050600060098054600181600116156101000203166002900490501415611a8d5780915050611c39565b600081511115611b66576009816040516020018083805460018160011615610100020316600290048015611af85780601f10611ad6576101008083540402835291820191611af8565b820191906000526020600020905b815481529060010190602001808311611ae4575b505082805190602001908083835b60208310611b295780518252602082019150602081019050602083039250611b06565b6001836020036101000a03801982511681845116808217855250505050505090500192505050604051602081830303815290604052915050611c39565b6009611b7184612503565b6040516020018083805460018160011615610100020316600290048015611bcf5780601f10611bad576101008083540402835291820191611bcf565b820191906000526020600020905b815481529060010190602001808311611bbb575b505082805190602001908083835b60208310611c005780518252602082019150602081019050602083039250611bdd565b6001836020036101000a038019825116818451168082178552505050505050905001925050506040516020818303038152906040529150505b919050565b600d60009054906101000a900473ffffffffffffffffffffffffffffffffffffffff1673ffffffffffffffffffffffffffffffffffffffff163373ffffffffffffffffffffffffffffffffffffffff1614611c9857600080fd5b60001515600f60009054906101000a900460ff1615151415611cd4576001600f60006101000a81548160ff021916908315150217905550611cf0565b6000600f60006101000a81548160ff0219169083151502179055505b565b600f60009054906101000a900460ff1615611d0c57600080fd5b6000600e60003373ffffffffffffffffffffffffffffffffffffffff1673ffffffffffffffffffffffffffffffffffffffff168152602001908152602001600020541015611dc2576040517f08c379a000000000000000000000000000000000000000000000000000000000815260040180806020018281038252601d8152602001807f506c6179657220686173206e6f7420706c61796564206265666f72652e00000081525060200191505060405180910390fd5b33600c60006101000a81548173ffffffffffffffffffffffffffffffffffffffff021916908373ffffffffffffffffffffffffffffffffffffffff16021790555080600a819055506000611e276001611e19610e99565b6123bf90919063ffffffff16565b9050611e33338261264a565b5050565b6000600560008473ffffffffffffffffffffffffffffffffffffffff1673ffffffffffffffffffffffffffffffffffffffff16815260200190815260200160002060008373ffffffffffffffffffffffffffffffffffffffff1673ffffffffffffffffffffffffffffffffffffffff16815260200190815260200160002060009054906101000a900460ff16905092915050565b600b5481565b6000611ee782600261283e90919063ffffffff16565b9050919050565b600033905090565b816004600083815260200190815260200160002060006101000a81548173ffffffffffffffffffffffffffffffffffffffff021916908373ffffffffffffffffffffffffffffffffffffffff160217905550808273ffffffffffffffffffffffffffffffffffffffff16611f6983610fdc565b73ffffffffffffffffffffffffffffffffffffffff167f8c5be1e5ebec7d5bd14f71427d1e84f3dd0314c0f7b2291e5b200ac8c7c3b92560405160405180910390a45050565b6000611fbd82600001612858565b9050919050565b6000611fcf82611ed1565b612024576040517f08c379a000000000000000000000000000000000000000000000000000000000815260040180806020018281038252602c8152602001806133bd602c913960400191505060405180910390fd5b600061202f83610fdc565b90508073ffffffffffffffffffffffffffffffffffffffff168473ffffffffffffffffffffffffffffffffffffffff16148061209e57508373ffffffffffffffffffffffffffffffffffffffff1661208684610cba565b73ffffffffffffffffffffffffffffffffffffffff16145b806120af57506120ae8185611e37565b5b91505092915050565b8273ffffffffffffffffffffffffffffffffffffffff166120d882610fdc565b73ffffffffffffffffffffffffffffffffffffffff1614612144576040517f08c379a00000000000000000000000000000000000000000000000000000000081526004018080602001828103825260298152602001806134c26029913960400191505060405180910390fd5b600073ffffffffffffffffffffffffffffffffffffffff168273ffffffffffffffffffffffffffffffffffffffff1614156121ca576040517f08c379a00000000000000000000000000000000000000000000000000000000081526004018080602001828103825260248152602001806133996024913960400191505060405180910390fd5b6121d5838383612869565b6121e0600082611ef6565b61223181600160008673ffffffffffffffffffffffffffffffffffffffff1673ffffffffffffffffffffffffffffffffffffffff16815260200190815260200160002061286e90919063ffffffff16565b5061228381600160008573ffffffffffffffffffffffffffffffffffffffff1673ffffffffffffffffffffffffffffffffffffffff16815260200190815260200160002061288890919063ffffffff16565b5061229a818360026128a29092919063ffffffff16565b50808273ffffffffffffffffffffffffffffffffffffffff168473ffffffffffffffffffffffffffffffffffffffff167fddf252ad1be2c89b69c2b068fc378daa952ba7f163c4a11628f55a4df523b3ef60405160405180910390a4505050565b600061230a83600001836128d7565b60001c905092915050565b600080600080612328866000018661295a565b915091508160001c8160001c9350935050509250929050565b6000612354846000018460001b846129f3565b60001c90509392505050565b600061236e82600001612ae9565b9050919050565b60006123b783836040518060400160405280601a81526020017f536166654d6174683a206469766973696f6e206279207a65726f000000000000815250612afa565b905092915050565b60008082840190508381101561243d576040517f08c379a000000000000000000000000000000000000000000000000000000000815260040180806020018281038252601b8152602001807f536166654d6174683a206164646974696f6e206f766572666c6f77000000000081525060200191505060405180910390fd5b8091505092915050565b600061248983836040518060400160405280601e81526020017f536166654d6174683a207375627472616374696f6e206f766572666c6f770000815250612bc0565b905092915050565b61249c8484846120b8565b6124a884848484612c80565b6124fd576040517f08c379a00000000000000000000000000000000000000000000000000000000081526004018080602001828103825260328152602001806133676032913960400191505060405180910390fd5b50505050565b6060600082141561254b576040518060400160405280600181526020017f30000000000000000000000000000000000000000000000000000000000000008152509050612645565b600082905060005b60008214612575578080600101915050600a828161256d57fe5b049150612553565b60608167ffffffffffffffff8111801561258e57600080fd5b506040519080825280601f01601f1916602001820160405280156125c15781602001600182028036833780820191505090505b50905060006001830390508593505b6000841461263d57600a84816125e257fe5b0660300160f81b828280600190039350815181106125fc57fe5b60200101907effffffffffffffffffffffffffffffffffffffffffffffffffffffffffffff1916908160001a905350600a848161263557fe5b0493506125d0565b819450505050505b919050565b600073ffffffffffffffffffffffffffffffffffffffff168273ffffffffffffffffffffffffffffffffffffffff1614156126ed576040517f08c379a00000000000000000000000000000000000000000000000000000000081526004018080602001828103825260208152602001807f4552433732313a206d696e7420746f20746865207a65726f206164647265737381525060200191505060405180910390fd5b6126f681611ed1565b15612769576040517f08c379a000000000000000000000000000000000000000000000000000000000815260040180806020018281038252601c8152602001807f4552433732313a20746f6b656e20616c7265616479206d696e7465640000000081525060200191505060405180910390fd5b61277560008383612869565b6127c681600160008573ffffffffffffffffffffffffffffffffffffffff1673ffffffffffffffffffffffffffffffffffffffff16815260200190815260200160002061288890919063ffffffff16565b506127dd818360026128a29092919063ffffffff16565b50808273ffffffffffffffffffffffffffffffffffffffff16600073ffffffffffffffffffffffffffffffffffffffff167fddf252ad1be2c89b69c2b068fc378daa952ba7f163c4a11628f55a4df523b3ef60405160405180910390a45050565b6000612850836000018360001b612e99565b905092915050565b600081600001805490509050919050565b505050565b6000612880836000018360001b612ebc565b905092915050565b600061289a836000018360001b612fa4565b905092915050565b60006128ce846000018460001b8473ffffffffffffffffffffffffffffffffffffffff1660001b613014565b90509392505050565b600081836000018054905011612938576040517f08c379a00000000000000000000000000000000000000000000000000000000081526004018080602001828103825260228152602001806133456022913960400191505060405180910390fd5b82600001828154811061294757fe5b9060005260206000200154905092915050565b600080828460000180549050116129bc576040517f08c379a00000000000000000000000000000000000000000000000000000000081526004018080602001828103825260228152602001806134746022913960400191505060405180910390fd5b60008460000184815481106129cd57fe5b906000526020600020906002020190508060000154816001015492509250509250929050565b60008084600101600085815260200190815260200160002054905060008114158390612aba576040517f08c379a00000000000000000000000000000000000000000000000000000000081526004018080602001828103825283818151815260200191508051906020019080838360005b83811015612a7f578082015181840152602081019050612a64565b50505050905090810190601f168015612aac5780820380516001836020036101000a031916815260200191505b509250505060405180910390fd5b50846000016001820381548110612acd57fe5b9060005260206000209060020201600101549150509392505050565b600081600001805490509050919050565b60008083118290612ba6576040517f08c379a00000000000000000000000000000000000000000000000000000000081526004018080602001828103825283818151815260200191508051906020019080838360005b83811015612b6b578082015181840152602081019050612b50565b50505050905090810190601f168015612b985780820380516001836020036101000a031916815260200191505b509250505060405180910390fd5b506000838581612bb257fe5b049050809150509392505050565b6000838311158290612c6d576040517f08c379a00000000000000000000000000000000000000000000000000000000081526004018080602001828103825283818151815260200191508051906020019080838360005b83811015612c32578082015181840152602081019050612c17565b50505050905090810190601f168015612c5f5780820380516001836020036101000a031916815260200191505b509250505060405180910390fd5b5060008385039050809150509392505050565b6000612ca18473ffffffffffffffffffffffffffffffffffffffff166130f0565b612cae5760019050612e91565b6060612e1863150b7a0260e01b612cc3611eee565b888787604051602401808573ffffffffffffffffffffffffffffffffffffffff1681526020018473ffffffffffffffffffffffffffffffffffffffff16815260200183815260200180602001828103825283818151815260200191508051906020019080838360005b83811015612d47578082015181840152602081019050612d2c565b50505050905090810190601f168015612d745780820380516001836020036101000a031916815260200191505b5095505050505050604051602081830303815290604052907bffffffffffffffffffffffffffffffffffffffffffffffffffffffff19166020820180517bffffffffffffffffffffffffffffffffffffffffffffffffffffffff8381831617835250505050604051806060016040528060328152602001613367603291398773ffffffffffffffffffffffffffffffffffffffff166131039092919063ffffffff16565b90506000818060200190516020811015612e3157600080fd5b8101908080519060200190929190505050905063150b7a0260e01b7bffffffffffffffffffffffffffffffffffffffffffffffffffffffff1916817bffffffffffffffffffffffffffffffffffffffffffffffffffffffff191614925050505b949350505050565b600080836001016000848152602001908152602001600020541415905092915050565b60008083600101600084815260200190815260200160002054905060008114612f985760006001820390506000600186600001805490500390506000866000018281548110612f0757fe5b9060005260206000200154905080876000018481548110612f2457fe5b9060005260206000200181905550600183018760010160008381526020019081526020016000208190555086600001805480612f5c57fe5b60019003818190600052602060002001600090559055866001016000878152602001908152602001600020600090556001945050505050612f9e565b60009150505b92915050565b6000612fb0838361311b565b61300957826000018290806001815401808255809150506001900390600052602060002001600090919091909150558260000180549050836001016000848152602001908152602001600020819055506001905061300e565b600090505b92915050565b60008084600101600085815260200190815260200160002054905060008114156130bb578460000160405180604001604052808681526020018581525090806001815401808255809150506001900390600052602060002090600202016000909190919091506000820151816000015560208201518160010155505084600001805490508560010160008681526020019081526020016000208190555060019150506130e9565b828560000160018303815481106130ce57fe5b90600052602060002090600202016001018190555060009150505b9392505050565b600080823b905060008111915050919050565b6060613112848460008561313e565b90509392505050565b600080836001016000848152602001908152602001600020541415905092915050565b6060613149856130f0565b6131bb576040517f08c379a000000000000000000000000000000000000000000000000000000000815260040180806020018281038252601d8152602001807f416464726573733a2063616c6c20746f206e6f6e2d636f6e747261637400000081525060200191505060405180910390fd5b600060608673ffffffffffffffffffffffffffffffffffffffff1685876040518082805190602001908083835b6020831061320b57805182526020820191506020810190506020830392506131e8565b6001836020036101000a03801982511681845116808217855250505050505090500191505060006040518083038185875af1925050503d806000811461326d576040519150601f19603f3d011682016040523d82523d6000602084013e613272565b606091505b5091509150811561328757809250505061333c565b60008151111561329a5780518082602001fd5b836040517f08c379a00000000000000000000000000000000000000000000000000000000081526004018080602001828103825283818151815260200191508051906020019080838360005b838110156133015780820151818401526020810190506132e6565b50505050905090810190601f16801561332e5780820380516001836020036101000a031916815260200191505b509250505060405180910390fd5b94935050505056fe456e756d657261626c655365743a20696e646578206f7574206f6620626f756e64734552433732313a207472616e7366657220746f206e6f6e20455243373231526563656976657220696d706c656d656e7465724552433732313a207472616e7366657220746f20746865207a65726f20616464726573734552433732313a206f70657261746f7220717565727920666f72206e6f6e6578697374656e7420746f6b656e4552433732313a20617070726f76652063616c6c6572206973206e6f74206f776e6572206e6f7220617070726f76656420666f7220616c6c4552433732313a2062616c616e636520717565727920666f7220746865207a65726f20616464726573734552433732313a206f776e657220717565727920666f72206e6f6e6578697374656e7420746f6b656e456e756d657261626c654d61703a20696e646578206f7574206f6620626f756e64734552433732313a20617070726f76656420717565727920666f72206e6f6e6578697374656e7420746f6b656e4552433732313a207472616e73666572206f6620746f6b656e2074686174206973206e6f74206f776e4552433732314d657461646174613a2055524920717565727920666f72206e6f6e6578697374656e7420746f6b656e4c6561646572277320686967682073636f726520686173206e6f74206265656e2062656174656e206f72206e6f206561726e696e677320636f6c6c6563746564207965742e4552433732313a20617070726f76616c20746f2063757272656e74206f776e65724552433732313a207472616e736665722063616c6c6572206973206e6f74206f776e6572206e6f7220617070726f766564a2646970667358221220107680ad52a92286c5f419f69348bb0adffc1f36577c553688a1ea522169489464736f6c634300060c0033",
  "immutableReferences": {},
  "source": "// SPDX-License-Identifier: MIT\npragma solidity >=0.6.0 <0.7.0;\n\n/// @title Proof-of-Snake\n/// @author Sean Sing\n/// @dev All function calls are made through the front end.\n\nimport \"@openzeppelin/contracts/token/ERC721/ERC721.sol\";\nimport \"@openzeppelin/contracts/math/SafeMath.sol\";\n\ncontract ProofOfSnake is ERC721 {\n    //@notice Serves as the database for the front end snake game. Tracks current high scorer, his high score, game fee, and balance of earnings of the current and past addresses that were high scorers.\n\n    //@dev Safety Feature: Mitigates Integer Overflow and Underflow (SWC-101).\n    using SafeMath for uint256;\n\n    uint256 public highScore;\n    uint256 public gameFee = 0.1 ether;\n    address public currentLeader;\n    address public owner;\n    mapping(address => uint256) public potBalance;\n\n    bool public stopped = false;\n\n    //@dev Design pattern: Restricting access\n    modifier onlyOwner {\n        require(msg.sender == owner);\n        _;\n    }\n\n    //@dev Design pattern: Circuit breaker to stop players from playing during emergency and allows currentLeader to withdraw his earnings.\n    modifier stopInEmergency {\n        require(!stopped);\n        _;\n    }\n    modifier onlyInEmergency {\n        require(stopped);\n        _;\n    }\n\n    function emergency() public onlyOwner {\n        if (stopped == false) {\n            stopped = true;\n        } else {\n            stopped = false;\n        }\n    }\n\n    //@dev record the contract owner's address and sets it as the currentLeader and balance of 0.\n    //@param msg.sender only.\n\n    constructor() public ERC721(\"Proof-of-Snake High Scorer\", \"POSHS\") {\n        owner = msg.sender;\n        currentLeader = msg.sender;\n        potBalance[owner] = 0;\n        highScore = 2;\n    }\n\n    //@notice Called when user clicks to the Play button on the front end. Fee is split to the contract owner and the currentLeader, stored in potBalance mapping.\n    function playGame() public payable stopInEmergency {\n        //@notice Ensures minimum value is met to play the game.\n        require(msg.value >= gameFee, \"Minimum game fee is not met.\");\n        potBalance[msg.sender] = 0;\n        //@dev Safety feature: use SafeMath's function to add half the fee to currentLeader's potBalance mapping\n        //@dev Safety feature: use SafeMath's functions to add remaining fee to owner's potBalance mapping\n\n        potBalance[owner] = potBalance[owner].add(msg.value.div(2));\n        potBalance[currentLeader] = potBalance[currentLeader].add(\n            msg.value.sub(msg.value.div(2))\n        );\n    }\n\n    //@notice Called when a new high score is achieved.\n    //@param Takes the current high score uint and stores in highScore.\n    function newLeader(uint256 _score) public stopInEmergency {\n        //@notice Requires that msg.sender has at least paid to play the game once\n        require(potBalance[msg.sender] >= 0, \"Player has not played before.\");\n        //@notice Updates the current leader to msg.sender\n        currentLeader = msg.sender;\n        //@notice Updates the current high score\n        highScore = _score;\n\n        //Mint a POSHS token\n        uint256 _tokenId = totalSupply().add(1);\n        _mint(msg.sender, _tokenId);\n    }\n\n    //@notice Called when previous high scorer wants to withdraw his earnings.\n    //@dev Design Pattern: Withdrawal pattern rather than direct distribution.\n    //@dev Safety feature: Mitigates Denial of Service with Failed Call (SWC-113).\n    function withdrawEarnings() public stopInEmergency {\n        //@notice Ensures that withdrawer's high score has been beatan before being able to withdraw. This maintains the intended economics.\n        require(\n            msg.sender != currentLeader && potBalance[msg.sender] > 0,\n            \"Leader's high score has not been beaten or no earnings collected yet.\"\n        );\n\n        potBalance[msg.sender] = 0;\n\n        //@notice Empty out balance of msg.sender and transfer to msg.sender.\n        msg.sender.transfer(potBalance[msg.sender]);\n    }\n}\n",
  "sourcePath": "/Users/henryking/Dapps/Consensys/proof-of-snake/contracts/ProofOfSnake.sol",
  "compiler": {
    "name": "solc",
    "version": "0.6.12+commit.27d51765.Emscripten.clang"
  },
  "schemaVersion": "3.2.5",
  "updatedAt": "2020-12-30T02:36:50.114Z",
  "networkType": "ethereum",
  "devdoc": {
    "kind": "dev",
    "methods": {
      "approve(address,uint256)": {
        "details": "See {IERC721-approve}."
      },
      "balanceOf(address)": {
        "details": "See {IERC721-balanceOf}."
      },
      "baseURI()": {
        "details": "Returns the base URI set via {_setBaseURI}. This will be automatically added as a prefix in {tokenURI} to each token's URI, or to the token ID if no specific URI is set for that token ID."
      },
      "getApproved(uint256)": {
        "details": "See {IERC721-getApproved}."
      },
      "isApprovedForAll(address,address)": {
        "details": "See {IERC721-isApprovedForAll}."
      },
      "name()": {
        "details": "See {IERC721Metadata-name}."
      },
      "ownerOf(uint256)": {
        "details": "See {IERC721-ownerOf}."
      },
      "safeTransferFrom(address,address,uint256)": {
        "details": "See {IERC721-safeTransferFrom}."
      },
      "safeTransferFrom(address,address,uint256,bytes)": {
        "details": "See {IERC721-safeTransferFrom}."
      },
      "setApprovalForAll(address,bool)": {
        "details": "See {IERC721-setApprovalForAll}."
      },
      "supportsInterface(bytes4)": {
        "details": "See {IERC165-supportsInterface}. Time complexity O(1), guaranteed to always use less than 30 000 gas."
      },
      "symbol()": {
        "details": "See {IERC721Metadata-symbol}."
      },
      "tokenByIndex(uint256)": {
        "details": "See {IERC721Enumerable-tokenByIndex}."
      },
      "tokenOfOwnerByIndex(address,uint256)": {
        "details": "See {IERC721Enumerable-tokenOfOwnerByIndex}."
      },
      "tokenURI(uint256)": {
        "details": "See {IERC721Metadata-tokenURI}."
      },
      "totalSupply()": {
        "details": "See {IERC721Enumerable-totalSupply}."
      },
      "transferFrom(address,address,uint256)": {
        "details": "See {IERC721-transferFrom}."
      }
    },
    "version": 1
  },
  "userdoc": {
    "kind": "user",
    "methods": {},
    "version": 1
  }
}